{
  "_format": "hh-sol-artifact-1",
  "contractName": "MediTrackAMU",
  "sourceName": "contracts/MediTrackAMU.sol",
  "abi": [
    {
      "anonymous": false,
      "inputs": [
        {
          "indexed": true,
          "internalType": "uint256",
          "name": "id",
          "type": "uint256"
        },
        {
          "indexed": true,
          "internalType": "address",
          "name": "actor",
          "type": "address"
        },
        {
          "indexed": false,
          "internalType": "string",
          "name": "actionType",
          "type": "string"
        },
        {
          "indexed": false,
          "internalType": "string",
          "name": "animalId",
          "type": "string"
        },
        {
          "indexed": false,
          "internalType": "bytes32",
          "name": "recordHash",
          "type": "bytes32"
        },
        {
          "indexed": false,
          "internalType": "uint256",
          "name": "timestamp",
          "type": "uint256"
        }
      ],
      "name": "EventLogged",
      "type": "event"
    },
    {
      "inputs": [
        {
          "internalType": "string",
          "name": "actionType",
          "type": "string"
        },
        {
          "internalType": "string",
          "name": "animalId",
          "type": "string"
        },
        {
          "internalType": "bytes32",
          "name": "recordHash",
          "type": "bytes32"
        }
      ],
      "name": "addEvent",
      "outputs": [],
      "stateMutability": "nonpayable",
      "type": "function"
    },
    {
      "inputs": [
        {
          "internalType": "uint256",
          "name": "",
          "type": "uint256"
        }
      ],
      "name": "events",
      "outputs": [
        {
          "internalType": "address",
          "name": "actor",
          "type": "address"
        },
        {
          "internalType": "string",
          "name": "actionType",
          "type": "string"
        },
        {
          "internalType": "string",
          "name": "animalId",
          "type": "string"
        },
        {
          "internalType": "bytes32",
          "name": "recordHash",
          "type": "bytes32"
        },
        {
          "internalType": "uint256",
          "name": "timestamp",
          "type": "uint256"
        }
      ],
      "stateMutability": "view",
      "type": "function"
    },
    {
      "inputs": [
        {
          "internalType": "uint256",
          "name": "id",
          "type": "uint256"
        }
      ],
      "name": "getEvent",
      "outputs": [
        {
          "internalType": "address",
          "name": "actor",
          "type": "address"
        },
        {
          "internalType": "string",
          "name": "actionType",
          "type": "string"
        },
        {
          "internalType": "string",
          "name": "animalId",
          "type": "string"
        },
        {
          "internalType": "bytes32",
          "name": "recordHash",
          "type": "bytes32"
        },
        {
          "internalType": "uint256",
          "name": "timestamp",
          "type": "uint256"
        }
      ],
      "stateMutability": "view",
      "type": "function"
    },
    {
      "inputs": [],
      "name": "getEventCount",
      "outputs": [
        {
          "internalType": "uint256",
          "name": "",
          "type": "uint256"
        }
      ],
      "stateMutability": "view",
      "type": "function"
    }
  ],
  "bytecode": "0x608060405234801561001057600080fd5b50610e4e806100206000396000f3fe608060405234801561001057600080fd5b506004361061004c5760003560e01c80630b791430146100515780636d1884e014610085578063d49f1606146100b9578063d9e48f5c146100d5575b600080fd5b61006b6004803603810190610066919061065b565b6100f3565b60405161007c959493929190610781565b60405180910390f35b61009f600480360381019061009a919061065b565b610269565b6040516100b0959493929190610781565b60405180910390f35b6100d360048036038101906100ce9190610943565b6104a3565b005b6100dd610605565b6040516100ea91906109ce565b60405180910390f35b6000818154811061010357600080fd5b90600052602060002090600502016000915090508060000160009054906101000a900473ffffffffffffffffffffffffffffffffffffffff169080600101805461014c90610a18565b80601f016020809104026020016040519081016040528092919081815260200182805461017890610a18565b80156101c55780601f1061019a576101008083540402835291602001916101c5565b820191906000526020600020905b8154815290600101906020018083116101a857829003601f168201915b5050505050908060020180546101da90610a18565b80601f016020809104026020016040519081016040528092919081815260200182805461020690610a18565b80156102535780601f1061022857610100808354040283529160200191610253565b820191906000526020600020905b81548152906001019060200180831161023657829003601f168201915b5050505050908060030154908060040154905085565b600060608060008060008054905086106102b8576040517f08c379a00000000000000000000000000000000000000000000000000000000081526004016102af90610a95565b60405180910390fd5b60008087815481106102cd576102cc610ab5565b5b90600052602060002090600502016040518060a00160405290816000820160009054906101000a900473ffffffffffffffffffffffffffffffffffffffff1673ffffffffffffffffffffffffffffffffffffffff1673ffffffffffffffffffffffffffffffffffffffff16815260200160018201805461034c90610a18565b80601f016020809104026020016040519081016040528092919081815260200182805461037890610a18565b80156103c55780601f1061039a576101008083540402835291602001916103c5565b820191906000526020600020905b8154815290600101906020018083116103a857829003601f168201915b505050505081526020016002820180546103de90610a18565b80601f016020809104026020016040519081016040528092919081815260200182805461040a90610a18565b80156104575780601f1061042c57610100808354040283529160200191610457565b820191906000526020600020905b81548152906001019060200180831161043a57829003601f168201915b5050505050815260200160038201548152602001600482015481525050905080600001518160200151826040015183606001518460800151955095509550955095505091939590929450565b60006040518060a001604052803373ffffffffffffffffffffffffffffffffffffffff168152602001858152602001848152602001838152602001428152509050600081908060018154018082558091505060019003906000526020600020906005020160009091909190915060008201518160000160006101000a81548173ffffffffffffffffffffffffffffffffffffffff021916908373ffffffffffffffffffffffffffffffffffffffff160217905550602082015181600101908161056c9190610c90565b5060408201518160020190816105829190610c90565b50606082015181600301556080820151816004015550503373ffffffffffffffffffffffffffffffffffffffff1660016000805490506105c29190610d91565b7fb54cc0c2808f023ddfe91a364049626adc90509ca252df9cadb1c76065b99585868686426040516105f79493929190610dc5565b60405180910390a350505050565b60008080549050905090565b6000604051905090565b600080fd5b600080fd5b6000819050919050565b61063881610625565b811461064357600080fd5b50565b6000813590506106558161062f565b92915050565b6000602082840312156106715761067061061b565b5b600061067f84828501610646565b91505092915050565b600073ffffffffffffffffffffffffffffffffffffffff82169050919050565b60006106b382610688565b9050919050565b6106c3816106a8565b82525050565b600081519050919050565b600082825260208201905092915050565b60005b838110156107035780820151818401526020810190506106e8565b60008484015250505050565b6000601f19601f8301169050919050565b600061072b826106c9565b61073581856106d4565b93506107458185602086016106e5565b61074e8161070f565b840191505092915050565b6000819050919050565b61076c81610759565b82525050565b61077b81610625565b82525050565b600060a08201905061079660008301886106ba565b81810360208301526107a88187610720565b905081810360408301526107bc8186610720565b90506107cb6060830185610763565b6107d86080830184610772565b9695505050505050565b600080fd5b600080fd5b7f4e487b7100000000000000000000000000000000000000000000000000000000600052604160045260246000fd5b6108248261070f565b810181811067ffffffffffffffff82111715610843576108426107ec565b5b80604052505050565b6000610856610611565b9050610862828261081b565b919050565b600067ffffffffffffffff821115610882576108816107ec565b5b61088b8261070f565b9050602081019050919050565b82818337600083830152505050565b60006108ba6108b584610867565b61084c565b9050828152602081018484840111156108d6576108d56107e7565b5b6108e1848285610898565b509392505050565b600082601f8301126108fe576108fd6107e2565b5b813561090e8482602086016108a7565b91505092915050565b61092081610759565b811461092b57600080fd5b50565b60008135905061093d81610917565b92915050565b60008060006060848603121561095c5761095b61061b565b5b600084013567ffffffffffffffff81111561097a57610979610620565b5b610986868287016108e9565b935050602084013567ffffffffffffffff8111156109a7576109a6610620565b5b6109b3868287016108e9565b92505060406109c48682870161092e565b9150509250925092565b60006020820190506109e36000830184610772565b92915050565b7f4e487b7100000000000000000000000000000000000000000000000000000000600052602260045260246000fd5b60006002820490506001821680610a3057607f821691505b602082108103610a4357610a426109e9565b5b50919050565b7f496e76616c696420696400000000000000000000000000000000000000000000600082015250565b6000610a7f600a836106d4565b9150610a8a82610a49565b602082019050919050565b60006020820190508181036000830152610aae81610a72565b9050919050565b7f4e487b7100000000000000000000000000000000000000000000000000000000600052603260045260246000fd5b60008190508160005260206000209050919050565b60006020601f8301049050919050565b600082821b905092915050565b600060088302610b467fffffffffffffffffffffffffffffffffffffffffffffffffffffffffffffffff82610b09565b610b508683610b09565b95508019841693508086168417925050509392505050565b6000819050919050565b6000610b8d610b88610b8384610625565b610b68565b610625565b9050919050565b6000819050919050565b610ba783610b72565b610bbb610bb382610b94565b848454610b16565b825550505050565b600090565b610bd0610bc3565b610bdb818484610b9e565b505050565b5b81811015610bff57610bf4600082610bc8565b600181019050610be1565b5050565b601f821115610c4457610c1581610ae4565b610c1e84610af9565b81016020851015610c2d578190505b610c41610c3985610af9565b830182610be0565b50505b505050565b600082821c905092915050565b6000610c6760001984600802610c49565b1980831691505092915050565b6000610c808383610c56565b9150826002028217905092915050565b610c99826106c9565b67ffffffffffffffff811115610cb257610cb16107ec565b5b610cbc8254610a18565b610cc7828285610c03565b600060209050601f831160018114610cfa5760008415610ce8578287015190505b610cf28582610c74565b865550610d5a565b601f198416610d0886610ae4565b60005b82811015610d3057848901518255600182019150602085019450602081019050610d0b565b86831015610d4d5784890151610d49601f891682610c56565b8355505b6001600288020188555050505b505050505050565b7f4e487b7100000000000000000000000000000000000000000000000000000000600052601160045260246000fd5b6000610d9c82610625565b9150610da783610625565b9250828203905081811115610dbf57610dbe610d62565b5b92915050565b60006080820190508181036000830152610ddf8187610720565b90508181036020830152610df38186610720565b9050610e026040830185610763565b610e0f6060830184610772565b9594505050505056fea264697066735822122059c30945c839743ac4463cb1755e7bfcaf11180375b5a42dfe201397e529db5264736f6c63430008180033",
  "linkReferences": {},
  "deployedLinkReferences": {}
}